:020000040800F2
:1000000000000824DD2700084D2600084F260008C0
:10001000512600085326000855260008000000005D
:10002000000000000000000000000000572600084B
:1000300059260008000000005B2600085D26000825
:100040002D2800082D2800082D2800082D2800083C
:100050002D2800082D2800082D2800082D2800082C
:100060002D2800082D2800082D2800082D2800081C
:100070002D2800082D2800082D2800082D2800080C
:100080002D2800082D2800082D2800082D280008FC
:100090002D2800082D2800082D2800082D280008EC
:1000A0002D2800082D2800082D2800082D280008DC
:1000B0002D2800082D2800082D2800082D280008CC
:1000C0002D2800082D2800082D2800082D280008BC
:1000D0002D2800082D2800082D2800082D280008AC
:1000E0002D2800082D280008000000002D280008F9
:1000F0002D2800082D2800082D2800082D2800088C
:100100002D2800082D2800082D2800082D2800087B
:100110002D2800082D2800082D2800082D2800086B
:100120002D2800082D2800082D2800082D2800085B
:100130002D2800082D2800082D2800082D2800084B
:1001400000000000000000000000000000000000AF
:100150002D2800082D2800082D2800082D2800082B
:100160002D2800082D2800082D2800082D2800081B
:100170002D2800082D2800082D2800080000000068
:100180002D2800082D2800082D2800082D280008FB
:100190002D2800082D2800082D2800082D280008EB
:1001A0002D2800082D2800082D2800082D280008DB
:1001B0002D2800082D2800082D2800082D280008CB
:1001C0002D2800082D2800082D2800082D280008BB
:1001D0002D2800082D2800082D2800082D280008AB
:1001E0002D2800082D2800082D2800082D2800089B
:1001F0002D2800082D2800082D2800082D2800088B
:100200002D2800082D2800082D2800082D2800087A
:100210002D2800082D2800082D2800082D2800086A
:100220002D2800082D2800082D28000800000000B7
:100230002D2800082D280008000000002D280008A7
:100240002D2800082D2800082D2800082D2800083A
:100250002D2800082D2800082D2800082D2800082A
:100260002D2800082D2800082D2800082D2800081A
:100270002D2800082D2800082D2800080000000067
:100280002D2800082D2800082D2800080000000057
:08029000000000002D28000809
:1002C00010B5054C237833B9044B13B10448AFF390
:1002D00000800123237010BDC80900240000000025
:1002E000A8AB000808B5034B1BB103490348AFF3A3
:1002F000008008BD00000000CC090024A8AB000865
:1003000081F0004102E000BF83F0004330B54FEAC6
:1003100041044FEA430594EA050F08BF90EA020F33
:100320001FBF54EA000C55EA020C7FEA645C7FEAC6
:10033000655C00F0E2804FEA5454D4EB5555B8BFE9
:100340006D420CDD2C4480EA020281EA030382EA5A
:10035000000083EA010180EA020281EA0303362DEC
:1003600088BF30BD11F0004F4FEA01314FF4801CBF
:100370004CEA113102D0404261EB410113F0004FD1
:100380004FEA03334CEA133302D0524263EB430388
:1003900094EA050F00F0A780A4F10104D5F1200E26
:1003A0000DDB02FA0EFC22FA05F2801841F1000181
:1003B00003FA0EF2801843FA05F359410EE0A5F155
:1003C00020050EF1200E012A03FA0EFC28BF4CF086
:1003D000020C43FA05F3C01851EBE37101F000453C
:1003E00007D54FF0000EDCF1000C7EEB00006EEB49
:1003F0000101B1F5801F1BD3B1F5001F0CD34908D3
:100400005FEA30004FEA3C0C04F101044FEA445229
:1004100012F5800F80F09A80BCF1004F08BF5FEAB0
:10042000500C50F1000041EB045141EA050130BD90
:100430005FEA4C0C404141EB0101013C28BFB1F5A2
:10044000801FE9D291F0000F04BF01460020B1FAED
:1004500081F308BF2033A3F10B03B3F120020CDAC0
:100460000C3208DD02F1140CC2F10C0201FA0CF09E
:1004700021FA02F10CE002F11402D8BFC2F1200C03
:1004800001FA02F120FA0CFCDCBF41EA0C019040B9
:10049000E41AA2BF01EB0451294330BD6FEA040402
:1004A0001F3C1CDA0C340EDC04F11404C4F12002ED
:1004B00020FA04F001FA02F340EA030021FA04F3FF
:1004C00045EA030130BDC4F10C04C4F1200220FA56
:1004D00002F001FA04F340EA0300294630BD21FA94
:1004E00004F0294630BD94F0000F83F4801306BF5A
:1004F00081F480110134013D4EE77FEA645C18BF4E
:100500007FEA655C29D094EA050F08BF90EA020FE4
:1005100005D054EA000C04BF1946104630BD91EADC
:10052000030F1EBF0021002030BD5FEA545C05D1DF
:100530004000494128BF41F0004130BD14F580041E
:100540003CBF01F5801130BD01F0004545F0FE4192
:1005500041F470014FF0000030BD7FEA645C1ABFC7
:10056000194610467FEA655C1CBF0B46024650EAFE
:10057000013406BF52EA033591EA030F41F400212A
:1005800030BD00BF90F0000F04BF0021704730B5B0
:100590004FF4806404F132044FF000054FF0000185
:1005A00050E700BF90F0000F04BF0021704730B546
:1005B0004FF4806404F1320410F0004548BF40421B
:1005C0004FF000013EE700BF42004FEAE2014FEA70
:1005D00031014FEA02701FBF12F07F4393F07F4F4B
:1005E00081F06051704732F07F4208BF704793F04E
:1005F0007F4F04BF41F40021704730B54FF4607461
:1006000001F0004521F000411CE700BF50EA010263
:1006100008BF704730B54FF000050AE050EA01020C
:1006200008BF704730B511F0004502D5404261EB7C
:1006300041014FF4806404F132045FEA915C3FF4BD
:10064000D8AE4FF003025FEADC0C18BF03325FEA5A
:10065000DC0C18BF033202EBDC02C2F1200300FA0B
:1006600003FC20FA02F001FA03FE40EA0E0021FA30
:1006700002F11444BDE600BF80F0004002E000BF7C
:1006800081F0004142001FBF5FEA410392EA030F7D
:100690007FEA226C7FEA236C6AD04FEA1262D2EBC7
:1006A0001363C1BFD218414048404140B8BF5B42CC
:1006B000192B88BF704710F0004F40F4000020F065
:1006C0007F4018BF404211F0004F41F4000121F07B
:1006D0007F4118BF494292EA030F3FD0A2F10102C5
:1006E00041FA03FC10EB0C00C3F1200301FA03F103
:1006F00000F0004302D5494260EB4000B0F5000F26
:1007000013D3B0F1807F06D340084FEA310102F1E4
:100710000102FE2A51D2B1F1004F40EBC25008BF96
:1007200020F0010040EA03007047490040EB000060
:10073000013A28BFB0F5000FEDD2B0FA80FCACF161
:10074000080CB2EB0C0200FA0CF0AABF00EBC2508E
:1007500052421843BCBFD0401843704792F0000F7C
:1007600081F4000106BF80F400000132013BB5E7CF
:100770004FEA41037FEA226C18BF7FEA236C21D045
:1007800092EA030F04D092F0000F08BF08467047AA
:1007900090EA010F1CBF0020704712F07F4F04D178
:1007A000400028BF40F00040704712F100723CBF8B
:1007B00000F50000704700F0004343F0FE4040F4B5
:1007C000000070477FEA226216BF08467FEA236373
:1007D0000146420206BF5FEA412390EA010F40F45E
:1007E000800070474FF0000304E000BF10F00043AA
:1007F00048BF40425FEA000C08BF704743F0964391
:1008000001464FF000001CE050EA010208BF7047AB
:100810004FF000030AE000BF50EA010208BF704732
:1008200011F0004302D5404261EB41015FEA010C47
:1008300002BF84460146002043F0B64308BFA3F13F
:100840008053A3F50003BCFA8CF2083AA3EBC25321
:1008500010DB01FA02FC634400FA02FCC2F1200240
:10086000BCF1004F20FA02F243EB020008BF20F077
:100870000100704702F1200201FA02FCC2F12002DD
:1008800050EA4C0021FA02F243EB020008BF20EAD2
:10089000DC7070474FF0FF0C1CEAD0521EBF1CEA00
:1008A000D15392EA0C0F93EA0C0F6FD01A4480EAEE
:1008B000010C400218BF5FEA41211ED04FF00063D7
:1008C00043EA501043EA5111A0FB01310CF0004003
:1008D000B1F5000F3EBF490041EAD3715B0040EA29
:1008E000010062F17F02FD2A1DD8B3F1004F40EBF9
:1008F000C25008BF20F00100704790F0000F0CF0CC
:10090000004C08BF49024CEA502040EA51207F3A8F
:10091000C2BFD2F1FF0340EAC250704740F400006A
:100920004FF00003013A5DDC12F1190FDCBF00F05B
:1009300000407047C2F10002410021FA02F1C2F109
:10094000200200FA02FC5FEA310040F1000053EAA5
:100950004C0308BF20EADC70704792F0000F00F0F3
:10096000004C02BF400010F4000F013AF9D040EAF9
:100970000C0093F0000F01F0004C02BF490011F48D
:10098000000F013BF9D041EA0C018FE70CEAD1538B
:1009900092EA0C0F18BF93EA0C0F0AD030F0004C0B
:1009A00018BF31F0004CD8D180EA010000F00040BF
:1009B000704790F0000F17BF90F0004F084691F07D
:1009C000000F91F0004F14D092EA0C0F01D14202B7
:1009D0000FD193EA0C0F03D14B0218BF084608D180
:1009E00080EA010000F0004040F0FE4040F40000CA
:1009F000704740F0FE4040F4400070474FF0FF0C5D
:100A00001CEAD0521EBF1CEAD15392EA0C0F93EAA3
:100A10000C0F69D0A2EB030280EA010C49024FEAF5
:100A2000402037D04FF0805343EA111143EA1013AE
:100A30000CF000408B4238BF5B0042F17D024FF466
:100A4000000C8B4224BF5B1A40EA0C00B3EB510F41
:100A500024BFA3EB510340EA5C00B3EB910F24BF2A
:100A6000A3EB910340EA9C00B3EBD10F24BFA3EBAF
:100A7000D10340EADC001B0118BF5FEA1C1CE0D177
:100A8000FD2A3FF650AF8B4240EBC25008BF20F02A
:100A9000010070470CF0004C4CEA50207F32C2BF7E
:100AA000D2F1FF0340EAC250704740F400004FF01B
:100AB0000003013A37E792F0000F00F0004C02BF4C
:100AC000400010F4000F013AF9D040EA0C0093F016
:100AD000000F01F0004C02BF490011F4000F013B70
:100AE000F9D041EA0C0195E70CEAD15392EA0C0FD8
:100AF00008D142027FF47DAF93EA0C0F7FF470AF10
:100B0000084676E793EA0C0F04D14B023FF44CAF52
:100B100008466EE730F0004C18BF31F0004CCAD1E7
:100B200030F000427FF45CAF31F000437FF43CAF23
:100B30005FE700BF42000ED2B2F1FE4F0BD34FF081
:100B40009E03B3EB126209D44FEA002343F0004343
:100B500023FA02F070474FF00000704712F1610F66
:100B600001D1420202D14FF0FF3070474FF0000038
:100B7000704700BF7BB972B90029BEBF00204FF09B
:100B8000004106E008BF00281CBF6FF000414FF095
:100B9000FF3000F0A7B9ADF1080C6DE904CE0029D3
:100BA00009DB002B1ADB00F035F8DDF804E0DDE9A5
:100BB000022304B07047404261EB4101002B1BDB74
:100BC00000F028F8DDF804E0DDE9022304B040423B
:100BD00061EB4101524263EB43037047524263EBC6
:100BE000430300F017F8DDF804E0DDE9022304B068
:100BF000404261EB41017047524263EB430300F016
:100C000009F8DDF804E0DDE9022304B0524263EBA9
:100C1000430370472DE9F047089E0D460446884679
:100C2000002B4DD18A42944668D9B2FA82F252B171
:100C300001FA02F3C2F1200120FA01F10CFA02FCE0
:100C400041EA030894404FEA1C45210CB8FBF5FE2D
:100C50001FFA8CF705FB1E8341EA03430EFB07F1E5
:100C600099420BD91CEB03030EF1FF3080F01E817B
:100C7000994240F21B81AEF1020E63445B1AA4B2AA
:100C8000B3FBF5F005FB103344EA034400FB07F720
:100C9000A7420AD91CEB040400F1FF3380F008815D
:100CA000A74240F2058164440238E41B40EA0E404A
:100CB00000211EB1D4400023C6E90043BDE8F087FF
:100CC0008B4208D9002E00F0EE800021C6E9000515
:100CD0000846BDE8F087B3FA83F100294AD1AB4258
:100CE00002D3824200F2F980841A65EB03030120EB
:100CF0009846002EE2D0C6E90048DFE702B9FFDEE1
:100D0000B2FA82F2002A40F09180A1EB0C054FEA82
:100D10001C471FFA8CFE0121B5FBF7F307FB1350AC
:100D2000250C45EA00450EFB03F0A84208D91CEB50
:100D3000050503F1FF3802D2A84200F2CB804346FA
:100D40002D1AA4B2B5FBF7F007FB105544EA054491
:100D50000EFB00FEA64508D91CEB040400F1FF358C
:100D600002D2A64500F2BB802846A4EB0E0440EA5E
:100D700003409EE7C1F120078B4022FA07FC4CEAB2
:100D8000030C20FA07F405FA01F31C43FD404FEA77
:100D90001C4900FA01F3B5FBF9F8200C1FFA8CFE90
:100DA00009FB185540EA054508FB0EF0A84202FA77
:100DB00001F20BD91CEB050508F1FF3A80F08880A1
:100DC000A84240F28580A8F1020865442D1AA4B219
:100DD000B5FBF9F009FB105544EA054500FB0EFE92
:100DE000AE4508D91CEB050500F1FF346CD2AE45C9
:100DF0006AD90238654440EA0840A0FB0294A5EB9A
:100E00000E05A542C846A64656D353D05EB1B3EBF5
:100E1000080265EB0E0505FA07F722FA01F3CD404B
:100E20001F43C6E900750021BDE8F087C2F1200329
:100E300020FA03F10CFA02FC25FA03F395400D4366
:100E40004FEA1C471FFA8CFEB3FBF7F107FB11308A
:100E50002B0C43EA004301FB0EF0984204FA02F423
:100E600008D91CEB030301F1FF382FD298422DD98A
:100E7000023963441B1AADB2B3FBF7F007FB103322
:100E800045EA034500FB0EF3AB4208D91CEB050510
:100E900000F1FF3816D2AB4214D902386544ED1A7E
:100EA00040EA014138E73146304607E78646E5E645
:100EB0001846FAE64B45A9D2B9EB020864EB0C0ED2
:100EC0000138A3E74046EAE7204694E74146D1E7E8
:100ED000D0467BE7023B654432E7084609E76444B5
:100EE000023842E7704700BF000000000000000029
:100EF00001F0FF01102A2BDB10F0070F08D010F8CB
:100F0000013B013A8B422DD010F0070F42B3F6D1CE
:100F1000F0B441EA012141EA014122F007047FF0E7
:100F200000070023F0E80256083C85EA010586EA3E
:100F3000010685FA47F5A3FA87F586FA47F6A5FA7A
:100F400087F68EB9EED1F0BC01F0FF0102F0070286
:100F500032B110F8013B013A83EA010313B1F8D131
:100F60000020704701387047002D06BF3546033812
:100F7000073815F0010F07D1013015F4807F02BF4B
:100F8000013015F4C03F0130F0BC0138704700BF9C
:100F9000844641EA000313F003036DD1403A41D384
:100FA00051F8043B40F8043B51F8043B40F8043B43
:100FB00051F8043B40F8043B51F8043B40F8043B33
:100FC00051F8043B40F8043B51F8043B40F8043B23
:100FD00051F8043B40F8043B51F8043B40F8043B13
:100FE00051F8043B40F8043B51F8043B40F8043B03
:100FF00051F8043B40F8043B51F8043B40F8043BF3
:1010000051F8043B40F8043B51F8043B40F8043BE2
:1010100051F8043B40F8043B51F8043B40F8043BD2
:10102000403ABDD2303211D351F8043B40F8043B72
:1010300051F8043B40F8043B51F8043B40F8043BB2
:1010400051F8043B40F8043B103AEDD20C3205D382
:1010500051F8043B40F8043B043AF9D2043208D07A
:10106000D2071CBF11F8013B00F8013B01D30B88EC
:1010700003806046704700BF082A13D38B078DD0CA
:1010800010F003038AD0C3F10403D21ADB071CBF9C
:1010900011F8013B00F8013B80D331F8023B20F806
:1010A000023B7BE7043AD9D3013A11F8013B00F83F
:1010B000013BF9D20B7803704B7843708B788370C7
:1010C00060467047000000000000000000000000C3
:1010D0000000000000000000000000000000000010
:1010E0000000000000000000000000000000000000
:1010F00000000000000000000000000000000000F0
:1011000090F800F06DE9024520F007016FF0000C47
:1011100010F0070491F820F040F049804FF00004EF
:101120006FF00700D1E9002391F840F000F10800CA
:1011300082FA4CF2A4FA8CF283FA4CF3A2FA8CF302
:101140004BBBD1E9022382FA4CF200F10800A4FA69
:101150008CF283FA4CF3A2FA8CF3E3B9D1E90423BD
:1011600082FA4CF200F10800A4FA8CF283FA4CF3F4
:10117000A2FA8CF37BB9D1E9062301F1200182FAAE
:101180004CF200F10800A4FA8CF283FA4CF3A2FAB4
:101190008CF3002BC6D0002A04BF04301A4612BAC2
:1011A000B2FA82F2FDE8024500EBD2007047D1E9C5
:1011B000002304F00305C4F100004FEAC50514F054
:1011C000040F91F840F00CFA05F562EA05021CBF25
:1011D00063EA050362464FF00004A9E770B54FF0DB
:1011E000FF0C4CF4E06C1CEA11541DBF1CEA1355B3
:1011F00094EA0C0F95EA0C0F00F0DEF82C4481EA1B
:10120000030621EA4C5123EA4C5350EA013518BF3A
:1012100052EA033541F4801143F4801338D0A0FB27
:1012200002CE4FF00005E1FB02E506F00042E0FBD4
:1012300003E54FF00006E1FB03569CF0000F18BFDA
:101240004EF0010EA4F1FF04B6F5007F64F5407482
:1012500004D25FEA4E0E6D4146EB060642EAC62115
:1012600041EA55514FEAC52040EA5E504FEACE2E82
:10127000B4F1FD0C88BFBCF5E06F1ED8BEF1004F85
:1012800008BF5FEA500E50F1000041EB045170BD01
:1012900006F0004646EA010140EA020081EA030145
:1012A000B4EB5C04C2BFD4EB0C0541EA045170BD41
:1012B00041F480114FF0000E013C00F3AB8014F1BB
:1012C000360FDEBF002001F0004170BDC4F1000404
:1012D000203C35DA0C341BDC04F11404C4F1200585
:1012E00000FA05F320FA04F001FA05F240EA0200E0
:1012F00001F0004221F0004110EBD37021FA04F616
:1013000042EB06015EEA430E08BF20EAD37070BDCF
:10131000C4F10C04C4F1200500FA04F320FA05F02E
:1013200001FA04F240EA020001F0004110EBD37030
:1013300041F100015EEA430E08BF20EAD37070BDA0
:10134000C4F1200500FA05F24EEA020E20FA04F379
:1013500001FA05F243EA020321FA04F001F0004128
:1013600021FA04F220EA020000EBD3705EEA430E99
:1013700008BF20EAD37070BD94F0000F0FD101F0C8
:101380000046400041EB010111F4801F08BF013C01
:10139000F7D041EA060195F0000F18BF704703F03F
:1013A0000046520043EB030313F4801F08BF013DC6
:1013B000F7D043EA0603704794EA0C0F0CEA135582
:1013C00018BF95EA0C0F0CD050EA410618BF52EA3C
:1013D0004306D1D181EA030101F000414FF0000042
:1013E00070BD50EA410606BF1046194652EA430650
:1013F00019D094EA0C0F02D150EA013613D195EAC4
:101400000C0F05D152EA03361CBF104619460AD10B
:1014100081EA030101F0004141F0FE4141F4700115
:101420004FF0000070BD41F0FE4141F4780170BD05
:1014300070B54FF0FF0C4CF4E06C1CEA11541DBF6A
:101440001CEA135594EA0C0F95EA0C0F00F0A7F86C
:10145000A4EB050481EA030E52EA03354FEA013199
:1014600000F088804FEA03334FF0805545EA1313AC
:1014700043EA12634FEA022245EA111545EA106574
:101480004FEA00260EF000419D4208BF964244F10B
:10149000FD0404F5407402D25B084FEA3202B61A2A
:1014A00065EB03055B084FEA32024FF480104FF4FE
:1014B000002CB6EB020E75EB030E22BFB61A754672
:1014C00040EA0C005B084FEA3202B6EB020E75EB05
:1014D000030E22BFB61A754640EA5C005B084FEA6D
:1014E0003202B6EB020E75EB030E22BFB61A75463A
:1014F00040EA9C005B084FEA3202B6EB020E75EB45
:10150000030E22BFB61A754640EADC0055EA060E05
:1015100018D04FEA051545EA16754FEA06164FEA48
:10152000C30343EA52734FEAC2025FEA1C1CC0D1F4
:1015300011F4801F0BD141EA00014FF000004FF081
:10154000004CB6E711F4801F04BF01430020B4F142
:10155000FD0C88BFBCF5E06F3FF6AFAEB5EB030CFA
:1015600004BFB6EB020C5FEA500C50F1000041EBF7
:10157000045170BD0EF0004E4EEA113114EB5C04C4
:10158000C2BFD4EB0C0541EA045170BD41F4801197
:101590004FF0000E013C90E645EA060E8DE60CEA9F
:1015A000135594EA0C0F08BF95EA0C0F3FF43BAFBC
:1015B00094EA0C0F0AD150EA01347FF434AF95EA73
:1015C0000C0F7FF425AF104619462CE795EA0C0F57
:1015D00006D152EA03353FF4FDAE1046194622E724
:1015E00050EA410618BF52EA43067FF4C5AE50EAFE
:1015F00041047FF40DAF52EA43057FF4EBAE12E7EE
:101600004FF0FF3C06E000BF4FF0010C02E000BFCE
:101610004FF0010C4DF804CD4FEA410C7FEA6C5CB1
:101620004FEA430C18BF7FEA6C5C1BD001B050EA54
:10163000410C0CBF52EA430C91EA030F02BF90EA3F
:10164000020F0020704710F1000F91EA030F58BFFE
:10165000994208BF90422CBFD8176FEAE37040F060
:10166000010070474FEA410C7FEA6C5C02D150EAFE
:10167000013C07D14FEA430C7FEA6C5CD6D152EAB9
:10168000033CD3D05DF8040B704700BF844610467E
:1016900062468C461946634600E000BF01B5FFF77D
:1016A000B7FF002848BF10F1000F01BD4DF808ED4D
:1016B000FFF7F4FF0CBF012000205DF808FB00BF1E
:1016C0004DF808EDFFF7EAFF34BF012000205DF878
:1016D00008FB00BF4DF808EDFFF7E0FF94BF0120C5
:1016E00000205DF808FB00BF4DF808EDFFF7CEFFC6
:1016F00094BF012000205DF808FB00BF4DF808ED05
:10170000FFF7C4FF34BF012000205DF808FB00BFD5
:101710004FEA410C7FEA6C5C02D150EA013C0AD1ED
:101720004FEA430C7FEA6C5C02D152EA033C02D1DF
:101730004FF0000070474FF0010070474FEA410240
:1017400012F5001215D211D56FF47873B3EB625213
:1017500012D94FEAC12343F0004343EA505311F03A
:10176000004F23FA02F018BF404270474FF00000CC
:10177000704750EA013005D111F0004008BF6FF00A
:10178000004070474FF00000704700BF53B94AB99E
:10179000002908BF00281CBF4FF0FF314FF0FF3079
:1017A000FFF7A0BBADF1080C6DE904CEFFF732FAEC
:1017B000DDF804E0DDE9022304B0704700B587B02E
:1017C0008DF817000A230293012301930DF11702EC
:1017D000009200227821034801F04CFC07B05DF82C
:1017E00004FB00BF400E0024002303E0FF21054A54
:1017F000D1540133B3F5806F03D20028F6D10146EE
:10180000F5E77047EC09002410B584B000241AE015
:10181000A4F15000C0B2FFF7D1FF0020FFF7CEFFC8
:101820001020FFF7CBFF6423029380230193084B22
:1018300003EBC4130093012340227821054801F0F3
:1018400019FC0134E4B2072CE2D904B010BD00BF8A
:10185000EC090024400E002408B5642001F050F883
:10186000AE20FFF7ABFF2020FFF7A8FF1020FFF707
:10187000A5FFB020FFF7A2FFC820FFF79FFF0020C1
:10188000FFF79CFF1020FFF799FF4020FFF796FF1E
:101890008120FFF793FFFF20FFF790FFA120FFF7C4
:1018A0008DFFA620FFF78AFFA820FFF787FF3F20C4
:1018B000FFF784FFA420FFF781FFD320FFF77EFF0F
:1018C0000020FFF77BFFD520FFF778FFF020FFF720
:1018D00075FFD920FFF772FF2220FFF76FFFDA2094
:1018E000FFF76CFF1220FFF769FFDB20FFF766FFB1
:1018F0002020FFF763FF8D20FFF760FF1420FFF724
:101900005DFFAF20FFF75AFF0020FFF76DFFFFF7E5
:101910007BFF034B00221A805A800120587108BDBA
:10192000E40900243F2994BF0023012353EAD01384
:1019300013D1104B1B7913B1B2FA82F25209012A6A
:101940000CD0CB0800EBC31001F0070101238B4042
:10195000094A115C21EA030111547047CB0800EBDE
:10196000C31001F0070101238B40034A115C1943A6
:1019700011547047E4090024EC0900242DE9F047D4
:1019800082B0814602A800E906009846234B1B88D6
:101990009DF8006033447F2B3BDC204B5B889DF837
:1019A00001A053443F2B36DC00251FE01B4B188859
:1019B000598829442044B8FA88F25209C9B2C0B201
:1019C000FFF7B0FF0134A6420FD907FA04F313F46E
:1019D000004FEBD0114B18885988294420444246C7
:1019E000C9B2C0B2FFF79EFFECE70135AA4508D99E
:1019F000A9F1200303FB0A53019A32F81370002463
:101A0000E1E7064B1A8816441E80484602B0BDE83E
:101A1000F0870020FAE70020F8E700BFE40900247F
:101A200030B583B0044602A800E906001D4600E078
:101A30000134207848B12B4602AA12E90600FFF7CC
:101A40009DFF024620788242F2D003B030BD0000F4
:101A500070B582B0044602A800E906001E460025C3
:101A600000E001342078D8B1334602AA12E906001A
:101A7000FFF784FF02462078824211D1094B1A8871
:101A80009DF800100A447F2AEBDD0135EDB20022FB
:101A90001A805A889DF8011005FB01225A80E0E760
:101AA00002B070BDE4090024014B188059807047D2
:101AB000E409002410B586B08C461446838C5B0084
:101AC00099B241F2883302930223019305AB00934C
:101AD00001236246806A01F0A3FB48B99DF81520F6
:101AE0009DF8143043EA02232380012006B010BD84
:101AF0000020FBE710B5044602468821FFF7DAFF15
:101B000000B910BDA21C8A212046FFF7D3FF002890
:101B1000F7D0221D8C212046FFF7CCFF0028F0D003
:101B2000A21D8E212046FFF7C5FF0028E9D004F151
:101B3000080290212046FFF7BDFF0028E1D004F104
:101B40000A0292212046FFF7B5FF0028D9D004F100
:101B50000C0294212046FFF7ADFF0028D1D004F1FC
:101B60000E0296212046FFF7A5FF0028C9D004F1F8
:101B7000100298212046FFF79DFF0028C1D004F1F4
:101B800012029A212046FFF795FF0028B9D004F1F0
:101B900014029C212046FFF78DFF0028B1D004F1EC
:101BA00016029E212046FFF785FFAAE700B587B001
:101BB0008C468DF81720838C5B0099B242F210732B
:101BC0000293012301930DF1170200926246806A8D
:101BD00001F050FA00B1012007B05DF804FB70B5C8
:101BE00086B0044600F11802818C490089B241F2A6
:101BF00088330293012301930092A122806A01F0AD
:101C00000FFB28B900252DB10026304606B070BD67
:101C10000125F8E704F11A02E1212046FFF74AFF07
:101C200006460028F1D004F11C02A18C490089B2BB
:101C300041F288330293012301930092E322A06AC8
:101C400001F0EEFA00B101250DB10026DDE70DF13E
:101C50001602E4212046FFF72DFF06460028D4D0C7
:101C600005AAE5212046FFF725FF06460028CCD02F
:101C700004F12202A18C490089B241F28833029317
:101C8000012301930092E722A06A01F0C9FA00B192
:101C900001250DB10026B8E7BDF81620130103F4A5
:101CA0007F63C2F303221343E383BDF814301B099F
:101CB0002384AAE703230370002242708370C37059
:101CC0000371437170472DE9F04186B0838C763BF8
:101CD0009BB2012B04D90026304606B0BDE8F08146
:101CE00004460D4600F13202818C490089B241F26E
:101CF00088330293012301930092D022806A01F07D
:101D00008FFA68B90023002B73D194F83260582EF3
:101D100018BF602E14BF0126002603D00026DBE783
:101D20000123F0E7B622E0212046FFF73FFF0746F8
:101D30000028D1D1A38C5B0099B241F28833029381
:101D4000012301930DF117020092F322A06A01F022
:101D500067FA002839D13B46002BEBD19DF81730AC
:101D600013F0010FE6D12046FFF7C4FE0746002816
:101D700041D094F83230602B29D06B796A78920088
:101D800042EA431202F0FC02F5212046FFF70EFF63
:101D90000028A1D12B78012B20D0EA78AB789B00CA
:101DA00043EA42135BB295F9002013435FFA83F8CC
:101DB00094F83230602B14D04246F4212046FFF7CD
:101DC000F5FE002888D13E4686E70123C4E7204679
:101DD000FFF705FF0028D0D106467DE700232B70D2
:101DE000DBE72A79F2212046FFF7E0FE0028E3D066
:101DF00072E7002670E706466EE72DE9F04F87B0E0
:101E00000546894617461E4690F83230602B19D099
:101E1000DEB1002333601E460623A98C490089B237
:101E200041F288320292019304AB00930123F7221E
:101E3000A86A01F0F5F960B9002363B1002007B08A
:101E4000BDE8F08F1EB10823E7E70623E5E7062388
:101E5000E3E70123F1E79DF810009DF811804FEAB8
:101E6000081848EA00389DF8120048EA10189DF852
:101E700013209DF814301B0143EA02339DF815200E
:101E800043EA12122B885C00C4EBE204B5F902109D
:101E900004FB01F1C3EB221303FB03F42413B5F994
:101EA000043003FB04F4A41304EBE12404EB8403E7
:101EB00080331B12C9F80030E317B4F5FA3C43F144
:101EC000FF3A0CFB0AF2ACFB0CB303EB4203B5F98F
:101ED0001000C2170BFB02F200FB032EABFB00024B
:101EE0007244B5F90E104FEAE1790CFB09F901FBD8
:101EF0000A99ACFB011ECE444FEA4E4E4EEAD13E4B
:101F00004904401842EB0E0EB5F90C100EEBC10E51
:101F1000B5F90A10CA170BFB02F201FB0323ABFB56
:101F2000011B03EB0B02090A41EA0261B5F90890B3
:101F30004FEAE9730CFB03F309FB0A33ACFB09C955
:101F40004B441B0343EA1C534FEA0C3C11EB0C0CB3
:101F500043EB222303F50043EA88ACFB02C102FBFA
:101F6000031C4FEA6C024FEAEC7353EA6C0100F079
:101F7000AD80C8F580184FEA68014FEAC878B8EB21
:101F8000000061EB0E0110EB000C41EB010E1CEBAD
:101F9000000C41EB0E0E4FEA8E1848EA9C684FEA9F
:101FA0008C191CEB090C4EEB080E4FEA8E0E4EEA14
:101FB0009C7E4FEA8C0C1CEB000C41EB0E0E4FEAA2
:101FC0008E0E4EEA9C7E4FEA8C0C1CEB000041EB1F
:101FD0000E01FEF7CFFD8646B5F916304FEAE379DC
:101FE000420B42EAC1424FEA613803FB08FC02FBA4
:101FF00009CCA3FB0239CC4402FB0CFC03FB08CC4C
:10200000A2FB03239C44520E42EACC12B5F91430D1
:102010004FEAE37808FB00F003FB0100AEFB033856
:102020004044DB0C43EA40331EEB020241EB6C619F
:102030009B1841EBE0401B0A43EA0063B5F912200C
:1020400003EB02133B60002E42D09DF816209DF852
:10205000173043EA0222A4F59634B5F91E301B0569
:10206000C3EB8233B5F9202002FB143303F5804320
:10207000DA1395F9223004FB03F39B12297F01FB4D
:1020800004F4E41204F5004404FB03F39B1203F58B
:102090000013B5F91A1001FB03F303F500539B136A
:1020A00002FB03F3DA1302FB02F2D211297E01FBD9
:1020B00002F2A3EB221323EAE373B3F1C85FA8BFD4
:1020C0004FF0C8531B1333600120B8E60023B9E773
:1020D0000120B4E6F0B585B00E4615461F4603B1A3
:1020E00001AB02AA03A9FFF788FE044610B92046F7
:1020F00005B0F0BD0398FEF779FB0B49FEF77EFCB7
:1021000030600298FEF76EFB4FF06E51FEF7C2FB97
:102110002860002FEBD00198FEF764FB4FF06A5166
:10212000FEF7B8FB3860E2E70000C842F0B589B0BE
:10213000002403940494059406940794264BD3F842
:10214000E02042F00102C3F8E020D3F8E02002F0E2
:1021500001020092009AD3F8E02042F00202C3F894
:10216000E020D3F8E02002F002020192019AD3F8B5
:10217000E02042F00402C3F8E020D3F8E03003F09E
:1021800004030293029B154F22460221384600F0B9
:1021900041FD134D01228021284600F03BFD2246DF
:1021A0004FF48071284600F035FD02230393012689
:1021B00004960594069403A9384600F017FC4FF4E2
:1021C000C073039304960594069403A9284600F06F
:1021D0000DFC09B0F0BD00BF0044025800000258D9
:1021E0000008025810B51446FFF75EFC034A0123AD
:1021F00006CA2046FFF714FC10BD00BF00000024F3
:1022000070B5ADF5816D05460E4614460020FFF70A
:10221000EBFA324605210120FFF7E4FF2846FEF7DE
:10222000D3F902460B460094064902A802F0D2FDFB
:1022300002AA19210120FFF7D5FFFFF7E5FA0DF5F6
:10224000816D70BD1CB9000872B6FEE708B5114873
:10225000114B0360114B4360EC2383600123C36087
:102260000023036143618361C361036200F0A4FE44
:1022700050B90021074801F0ABF838B900210548F2
:1022800001F0D4F820B908BDFFF7DEFFFFF7DCFF4F
:10229000FFF7DAFFEC0D002400540040BB7C700017
:1022A00008B51148114B0360114B4360F023836064
:1022B0000123C3600023036143618361C36103623F
:1022C00000F07AFE50B90021074801F081F838B9D2
:1022D0000021054801F0AAF820B908BDFFF7B4FFB6
:1022E000FFF7B2FFFFF7B0FF400E00240058004098
:1022F000BB7C700000B59DB04C22002109A802F003
:1023000017FD2022002101A802F012FD022001F099
:10231000B9F8002300931E4BDA6A22F00102DA6258
:10232000DB6A03F0010300931A4A936923F44043E4
:1023300043F480439361936903F440430093009B0B
:10234000144B9B6913F4005FFAD002230993012315
:102350000C9340230D930023129309A801F0BCF8BD
:1023600090B93F23019300230293039304930593B1
:102370004022069207930893012101A801F012FD63
:1023800020B91DB05DF804FBFFF75EFFFFF75CFFAF
:10239000000400580048025870B5D0B000F070FA40
:1023A000FFF7A8FFFFF7C2FEFFF750FFFFF778FF28
:1023B0000EA8FFF77FFC7623ADF830304A4B0D9323
:1023C00003E04FF4FA6000F09BFA0EA903A8FFF7B0
:1023D0007AFC0028F5D09DF83E60602E1AD0434A62
:1023E000434910A802F0F6FCFFF736FA0120FFF788
:1023F000FBF900210846FFF757FB3E4A002306CAB7
:1024000010A8FFF725FBFFF7FFF94FF4FA6000F083
:1024100077FA3DE0384AE3E70DF1400C374C0FCC3A
:10242000ACE80F000FCCACE80F0094E803004CF8C8
:10243000040B8CF800104FF4FA6000F061FA6B4660
:1024400002AA01A903A8FFF745FE0028E4D02C4A00
:102450002C490298FFF7D4FE4FF47A7000F050FA3E
:10246000294A2A490198FFF7CBFE4FF47A7000F011
:1024700047FA602E33D1264A26490098FFF7C0FE5E
:102480004FF47A7000F03CFA4FF4FA6000F038FA3A
:10249000214D00224FF48071284600F0BBFB1F4CF9
:1024A00000220221204600F0B5FB4FF4FA7000F044
:1024B00027FA01224FF48071284600F0ABFB01227D
:1024C0000221204600F0A6FB40F2DC5000F018FA92
:1024D0000020FFF789F9642000F012FAAFE70A2321
:1024E000ADF84030D0E700BFEC0D002424B900085F
:1024F00034B90008000000242CB9000848B90008CD
:1025000070B9000874B9000880B9000884B90008DF
:102510006CB9000894B9000800080258000002587D
:1025200082B0074BD3F8F42042F00202C3F8F42043
:10253000D3F8F43003F002030193019B02B070471B
:102540000044025810B5BAB00446002135913691C6
:10255000379138913991C02204A802F0E9FB236831
:10256000364A934204D0364A934233D03AB010BD33
:1025700008220023CDE9042304A801F069FE30BB42
:10258000304CD4F8E03043F00203C4F8E030D4F823
:10259000E03003F002030093009BC0233593122325
:1025A00036930023379338930423399335A926486B
:1025B00000F01CFAD4F8E83043F40013C4F8E83013
:1025C000D4F8E83003F400130193019BCEE7FFF742
:1025D0003BFED5E708220023CDE9042304A801F03F
:1025E00037FE38BB174CD4F8E03043F00203C4F890
:1025F000E030D4F8E03003F002030293029B4FF482
:102600004063359312233693002337933893042382
:10261000399335A90C4800F0E9F9D4F8E83043F4CF
:102620008003C4F8E830D4F8E83003F4800303935F
:10263000039B9BE7FFF708FED4E700BF0054004070
:10264000005800400044025800040258FEE7FEE72C
:10265000FEE7FEE7FEE770477047704708B500F0F9
:102660003DF908BD0120704708B502F037FB16237D
:1026700003604FF0FF3008BD08B54FF0FF31FFF7A2
:10268000F3FFFEE770B50C461646002506E0AFF3F3
:102690000080214601F8010B01350C46B542F6DBFE
:1026A000304670BD70B50C461646002504E014F89F
:1026B000010BAFF300800135B542F8DB304670BD49
:1026C0004FF0FF3070474FF400534B6000207047CD
:1026D000012070470020704710B503460C4A0D4991
:1026E0000D48006840B10C4800680344521A9342F8
:1026F00006D8094A136010BD0748084C0460F2E789
:1027000002F0ECFA0C2303604FF0FF30F3E700BF58
:102710000000082400040000940E0024E80E0024A9
:10272000244B1B6803F00F03062B06D8214A1368BD
:1027300023F00F0343F0070313601F4B1A6842F0A6
:1027400001021A6000221A6119681C4A0A401A60C4
:10275000184B1B6813F0080F06D0164A136823F0B5
:102760000F0343F007031360134B00229A61DA61F1
:102770001A62134999621349D962134919635A635A
:102780009963DA6319645A64196821F48021196025
:102790001A660E4B1A680E4B1340B3F1005F03D25A
:1027A0000C4B0122C3F808210B4B43F2D2021A60F2
:1027B000704700BF00200052004402587FEDF6EA47
:1027C000000202020000FF01800201010010005C13
:1027D0000000FFFF0080005100400052DFF834D0BD
:1027E000FFF79EFF0C480D490D4A002302E0D45824
:1027F000C4500433C4188C42F9D30A4A0A4C00234B
:1028000001E013600432A242FBD302F06DFAFFF73D
:10281000C3FD70470000082400000024C8090024FC
:10282000C0BD0008C8090024E40E0024FEE7000033
:10283000104B1B780BB90120704710B504464FF4BC
:102840007A70B0FBF3F30C4A1068B0FBF3F000F0C1
:10285000B9F868B90F2C01D901200AE000222146FD
:102860004FF0FF3000F078F8044B1C60002000E0CF
:10287000012010BD100000240800002414000024D2
:1028800010B5032000F056F801F080F90F498B696C
:10289000C3F303230E4AD35C03F01F03D8408B69B4
:1028A00003F00F03D35C03F01F0320FA03F3094A7C
:1028B0001360094B18600F20FFF7BAFF10B1012415
:1028C000204610BD0446FFF72BFEF9E700440258EE
:1028D000A0B900080C00002408000024034B1B785A
:1028E000034A11680B441360704700BF10000024B6
:1028F000980E0024014B1868704700BF980E002402
:1029000038B50446FFF7F6FF0546B4F1FF3F02D0A5
:10291000044B1B781C44FFF7EDFF401BA042FAD389
:1029200038BD00BF10000024014B1868000C704730
:102930000010005C0649CB6823F4E0631B041B0C09
:10294000000200F4E0600343024A1A43CA60704781
:1029500000ED00E00000FA0500B5174BDB68C3F39B
:102960000223C3F1070CBCF1040F28BF4FF0040C85
:1029700003F1040EBEF1060F14D9033B4FF0FF3EE6
:102980000EFA0CFC21EA0C0199400EFA03F322EA3C
:1029900003031943002807DB0901C9B2074B195487
:1029A0005DF804FB0023E9E700F00F000901C9B25C
:1029B000034B1954F4E700BF00ED00E000E400E031
:1029C00014ED00E00138B0F1807F0BD24FF0E0232E
:1029D0005861054AF02182F82310002098610722EF
:1029E0001A6170470120704700ED00E070B582B0B9
:1029F00000236EE085685E000324B44025EA0405E8
:102A0000CC68B4402C438460446824EA0C0C4C68C5
:102A1000C4F300149C4044EA0C0444606CE0DD08FC
:102A2000083550F8256003F007044FEA840C0F24A2
:102A300004FA0CF426EA040E0C6904FA0CF444EAD5
:102A40000E0440F825406FE0092400E0002404FA59
:102A50000EF42C430CF1020C6B4D45F82C404FF05A
:102A6000B0442568D44325EA0206D1F804C01CF41A
:102A7000801F01D042EA05064FF0B0452E606D6818
:102A800004EA0506D1F804C01CF4001F01D042EA94
:102A900005064FF0B0456E60D5F8845004EA05068F
:102AA000D1F804C01CF4003F01D042EA05064FF003
:102AB000B045C5F88460D5F880502C404E6816F4B7
:102AC000803F01D042EA05044FF0B042C2F8804096
:102AD00001330A6832FA03F400F093804FF0010CDE
:102AE0000CFA03FC1CEA0202F2D04C6804F0030466
:102AF000013C012C7FF67EAF4C6804F00304032CEC
:102B00000CD0C4685D004FF0030C0CFA05FC24EAFD
:102B10000C0C8C68AC4044EA0C04C4604C6804F0B3
:102B20000304022C3FF47BAF04684FEA430E4FF0DE
:102B3000030C0CFA0EFC24EA0C0C4C6804F00304A1
:102B400004FA0EF444EA0C0404604C6814F4403FA8
:102B5000BED02E4CD4F8F45045F00205C4F8F45021
:102B6000D4F8F44004F002040194019C4FEA930C61
:102B70000CF10205244C54F8255003F003044FEAED
:102B8000840E0F2404FA0EF425EA0405204CA0421A
:102B90003FF45CAF04F58064A04222D004F5806469
:102BA000A04220D004F58064A0421ED004F58064C9
:102BB000A0421CD004F58064A0421AD004F58064C1
:102BC000A04218D004F58064A04216D004F58064B9
:102BD000A04214D004F58064A0423FF435AF0A242B
:102BE00035E7012433E7022431E703242FE70424E7
:102BF0002DE705242BE7062429E7072427E70824E7
:102C000025E702B070BD00BF000400580044025820
:102C1000000002580AB18161704709048161704760
:102C200003689A6912F0020F01D000229A620368C9
:102C30009A6912F0010F03D19A6942F001029A6178
:102C4000704710B4019CC1F3090141EA02411943E4
:102C5000214321F0004102685368640D04F480644C
:102C600044F07F7444F4583444F47F7444F0030413
:102C700023EA04042143516010BC70472DE9F04160
:102C8000044603689E6916F010067ED00D469046F5
:102C90001022DA61002637462368986910F0200F69
:102CA00032D18FBBB5F1FF3FF6D0FFF723FEA0EB8B
:102CB0000800A84201D8002DEED121684A6802F42C
:102CC000804294F84230DBB2886910F4004F04D09F
:102CD000203B18BF012302B973B923689B6913F025
:102CE000200FD9D1FFF706FEA0EB08001928F4D970
:102CF00046F020060127CFE74B6843F480434B6042
:102D0000FFF7F8FD8046E8E70FB92022DA6146F0C8
:102D1000040601252268936913F4807F05D046F0EC
:102D200001064FF48071D161012513F4806F06D044
:102D300046F0080622684FF48061D161012513F442
:102D4000007F24D046F0020623684FF40072DA6157
:102D500001252046FFF764FF2268536823F0FF73C4
:102D600023F48B3323F4FF7323F001035360636C6C
:102D70001E436664202384F84130002384F84230E7
:102D800084F840302846BDE8F0810025C2E7002DD8
:102D9000F8D0DEE770B504460D46164623689B69F9
:102DA00013F0020F22D1324629462046FFF766FF74
:102DB000F0B9B5F1FF3FF1D0FFF79CFD801BA842B1
:102DC00001D8002DEAD123689B6913F0020FE5D1E9
:102DD000636C43F020036364202384F841300023B4
:102DE00084F8423084F84030012000E0002070BDBB
:102DF0000120FCE72DE9F04105460F4616469846AE
:102E00002C68A46937EA04030CBF4FF0010C4FF0A3
:102E1000000CB44522D1B8F1FF3FF1D0FFF76AFDB5
:102E2000069BC01A404502D8B8F1000FE8D12B68C4
:102E30009B6937EA03030CBF01230023B342DFD1B0
:102E40006B6C43F020036B64202385F84130002332
:102E500085F8423085F84030012000E00020BDE8D0
:102E6000F08100002DE9F04182B0044690461D46F5
:102E7000089E099F194B00934FF08073EAB2FFF749
:102E8000E0FE3A4631462046FFF784FFF8B9012DAF
:102E90000ED123685FFA88F29A62009733460022C7
:102EA00080212046FFF7A6FFA8B902B0BDE8F08157
:102EB00023684FEA18229A623A4631462046FFF7C5
:102EC00069FF30B923685FFA88F29A62E5E701206A
:102ED000EBE70120E9E70120E7E700BF00200080E1
:102EE0002DE9F04182B0044690461D46089E099F98
:102EF000184B00930023EAB2FFF7A3FE3A4631468F
:102F00002046FFF747FFF8B9012D0ED123685FFA7D
:102F100088F29A6200973346002240212046FFF74C
:102F200069FFA8B902B0BDE8F08123684FEA182212
:102F30009A623A4631462046FFF72CFF30B92368A3
:102F40005FFA88F29A62E5E70120EBE70120E9E702
:102F50000120E7E70020008070B504460D461646C4
:102F600004E023689B6913F0200F12D023689B694B
:102F700013F0200F1BD1324629462046FFF77EFE74
:102F8000B8B9FFF7B7FC801BA842EAD8002DEDD1F5
:102F9000E7E7636C43F020036364202384F8413047
:102FA000002384F8423084F84030012000E0002003
:102FB00070BD0120FCE70000002857D010B5044682
:102FC00090F84130002B41D0242384F8413022680E
:102FD000136823F0010313606368226823F07063B1
:102FE00013612268936823F400439360E368012B24
:102FF00031D0A368226843F404439360E368022B52
:103000002FD0226851681A4B0B4353602268D36853
:1030100023F40043D360236962691343A1692268E2
:1030200043EA0123D360E369216A22680B431360FA
:103030002268136843F001031360002060642023BA
:1030400084F84130206384F8420010BD80F840309D
:10305000FFF778FAB8E7A368226843F40043936067
:10306000CCE723684FF400625A60CAE7012070473A
:10307000008000022DE9F04F83B00D46BDF834A06A
:103080000E9F90F84110C9B2202940F0BC80044640
:10309000904699460C9BBAF1000F18BF002B16D032
:1030A00090F84030012B00F0B2804FF0010B80F817
:1030B00040B0FFF71FFC0646009019235A464FF414
:1030C00000412046FFF796FE30B101209CE04FF40E
:1030D00000734364012097E0212384F841304023AA
:1030E00084F84230002363640C9A6262A4F82AA038
:1030F0006363019600974B46424629462046FFF7F8
:10310000B1FE70B9638D9BB2FF2B0FD9FF222285D0
:10311000002300934FF0807329462046FFF791FD6E
:1031200021E0002384F8403058466DE0628D92B271
:103130002285002300934FF00073D2B22946204627
:10314000FFF77FFD0FE0628D92B22285002300938E
:103150004FF00073D2B229462046FFF772FD638D0F
:103160009BB2002B33D0324639462046FFF712FE81
:1031700000284ED1626A236812789A62636A01332A
:103180006362638D9BB2013B9BB26385238D013BE0
:103190009BB22385628D92B2002AE0D0002BDED153
:1031A00000963B46002280212046FFF723FE90BB7D
:1031B000638D9BB2FF2BC6D9FF222285002300938B
:1031C0004FF0807329462046FFF73BFDC7E73246A4
:1031D00039462046FFF7C0FEF8B923682022DA619D
:1031E00021684B6823F0FF7323F48B3323F4FF73C0
:1031F00023F001034B6084F84120002384F842301F
:1032000084F8403000E0022003B0BDE8F08F0220D7
:10321000FAE70120F8E70120F6E70120F4E70000D3
:103220002DE9F04F83B00D46BDF834A00E9F90F805
:103230004110C9B2202940F0BD800446904699460D
:103240000C9BBAF1000F18BF002B16D090F840303D
:10325000012B00F0B3804FF0010B80F840B0FFF776
:1032600049FB0646009019235A464FF40041204678
:10327000FFF7C0FD30B101209DE04FF400734364BF
:10328000012098E0222384F84130402384F8423022
:10329000002363640C9A6262A4F82AA06363019617
:1032A00000974B46424629462046FFF719FE70B963
:1032B000638D9BB2FF2B0FD9FF222285434B0093D6
:1032C0004FF0807329462046FFF7BBFC21E0002326
:1032D00084F8403058466EE0628D92B222853B4BB6
:1032E00000934FF00073D2B229462046FFF7A9FCA5
:1032F0000FE0628D92B22285002300934FF000739D
:10330000D2B229462046FFF79CFC638D9BB2002B6E
:1033100034D000963B46002204212046FFF76AFD88
:1033200000284DD123685A6A636A1A70636A0133B0
:103330006362228D013A92B22285638D9BB2013B7A
:103340009BB26385638D9BB2002BDED0002ADCD15B
:1033500000963B4680212046FFF74CFD90BB638DD5
:103360009BB2FF2BC5D9FF222285002300934FF08B
:10337000807329462046FFF764FCC6E7324639468B
:103380002046FFF7E9FDF8B923682022DA612168B9
:103390004B6823F0FF7323F48B3323F4FF7323F084
:1033A00001034B6084F84120002384F8423084F804
:1033B000403000E0022003B0BDE8F08F0220FAE7C1
:1033C0000120F8E70120F6E70120F4E7002400805F
:1033D00090F84130DBB2202B24D190F84030012B03
:1033E00022D0012380F84030242380F84130026845
:1033F000136823F0010313600268136823F48053F9
:10340000136002681368194311600268136843F07F
:1034100001031360202380F84130002380F84030FE
:1034200018467047022070470220704790F84130DC
:10343000DBB2202B22D190F84030012B20D0012389
:1034400080F84030242380F841300268136823F06C
:10345000010313600268136823F4706343EA0121D7
:1034600011600268136843F001031360202380F8A1
:103470004130002380F840301846704702207047E2
:1034800002207047134BDB6813F0040F07D1114B78
:10349000DB6803F0070383421AD00120704710B5A0
:1034A0000C4AD36823F007031843D060FFF722FAD1
:1034B0000446084B5B6813F4005F07D1FFF71AFA64
:1034C000001BB0F57A7FF4D9012000E0002010BD88
:1034D0000020704700480258002800F0398338B5B2
:1034E0000446036813F0010F25D0944A136903F0D2
:1034F0003803926A102B15D0182B0FD06368B3F5E0
:10350000803F3FD0002B53D18C4B1A6822F480327D
:103510001A601A6822F480221A6038E002F003026E
:10352000022AEBD1854B1B6813F4003F03D063687C
:10353000002B00F00F83236813F0020F00F0A1802E
:103540007E4A1369926A13F038035AD0182B55D06B
:10355000E368002B00F0DE8078490A6822F0190247
:1035600013430B60FFF7C6F90546744B1B6813F055
:10357000040F40F0AD80FFF7BDF9401B0228F4D9DD
:103580000320EEE26D4A136843F4803313606368EE
:103590002BB3FFF7AFF90546684B1B6813F4003FE8
:1035A000C9D1FFF7A7F9401B6428F5D90320D8E259
:1035B000B3F5A02F09D0614B1A6822F480321A604B
:1035C0001A6822F480221A60E1E75C4B1A6842F420
:1035D00080221A601A6842F480321A60D7E7FFF737
:1035E00089F90546554B1B6813F4003FA3D0FFF73C
:1035F00081F9401B6428F5D90320B2E212F0030FD1
:10360000A6D14E4B1B6813F0040F03D0E368002BC8
:1036100000F0A282494A136823F01903E1680B43C2
:103620001360FFF767F90546444B1B6813F0040F5E
:1036300006D1FFF75FF9401B0228F5D9032090E27D
:10364000FFF772F941F20303984212D82269402A27
:1036500007D03A494B6823F47C3343EA02334B608A
:103660000FE0364A536823F47C3343F4003353604D
:1036700007E0324A536823F0FE43216943EA0163BD
:103680005360236813F0100F00F088802B4A1369F1
:1036900003F03803926A082B56D0182B50D0E369F8
:1036A000002B00F0B880254A136843F080031360B4
:1036B000FFF720F90546214B1B6813F4807F40F08B
:1036C0008880FFF717F9401B0228F4D9032048E24D
:1036D000FFF72AF941F20303984212D82269402ADF
:1036E00007D016494B6823F47C3343EA02334B601E
:1036F000C7E7124A536823F47C3343F40033536022
:10370000BFE70E4A536823F0FE43216943EA016391
:103710005360B6E7094A136823F001031360FFF70B
:10372000E9F80546054B1B6813F0040FA9D0FFF715
:10373000E1F8401B0228F5D9032012E200440258A8
:1037400002F00302012AAAD1A14B1B6813F4807F67
:1037500003D0E369802B40F00182FFF7E5F841F2E6
:103760000303984212D8226A202A07D098494B684E
:1037700023F0F84343EA82634B600FE0944A5368B6
:1037800023F0F84343F08043536007E0904AD36846
:1037900023F07C53216A43EA0163D360236813F06A
:1037A000080F60D06369002B49D0894A536F43F0FA
:1037B00001035367FFF79EF80546854B5B6F13F0D7
:1037C000020F50D1FFF796F8401B0228F5D90320CD
:1037D000C7E1FFF7A9F841F20303984212D8226A21
:1037E000202A07D07A494B6823F0F84343EA8263E2
:1037F0004B60D3E7764A536823F0F84343F08043A5
:103800005360CBE7724AD36823F07C53216A43EAC2
:103810000163D360C2E76E4A136823F0800313602C
:10382000FFF768F805466A4B1B6813F4807FB5D034
:10383000FFF760F8401B0228F5D9032091E1644AA4
:10384000536F23F001035367FFF754F80546604BAD
:103850005B6F13F0020F06D0FFF74CF8401B0228F5
:10386000F5D903207DE1236813F0200F29D0A36947
:103870009BB1574A136843F480531360FFF73AF83B
:103880000546534B1B6813F4005F1AD1FFF732F85B
:10389000401B0228F5D9032063E14D4A136823F445
:1038A00080531360FFF726F80546494B1B6813F455
:1038B000005F06D0FFF71EF8401B0228F5D9032051
:1038C0004FE1236813F0040F21D1636A002B00F04D
:1038D00047813F4A126902F03802182A00F0EE8050
:1038E000022B79D03A4A136823F080731360FFF7F4
:1038F00001F80446364B1B6813F0007F00F0DC80B3
:10390000FEF7F8FF001B0228F4D9032029E1314A11
:10391000136843F480731360FEF7ECFF05462D4BEC
:103920001B6813F4807F06D1FEF7E4FF401B642878
:10393000F5D9032015E1A368012B0AD00BBB244B5A
:103940001A6F22F001021A671A6F22F004021A6736
:1039500004E01F4A136F43F001031367A36833B3F6
:10396000FEF7C8FF05461A4B1B6F13F0020FACD1D0
:10397000FEF7C0FF401B41F288339842F3D9032081
:10398000EFE0052B09D0124B1A6F22F001021A67E3
:103990001A6F22F004021A67E0E70D4B1A6F42F02B
:1039A00004021A671A6F42F001021A67D6E7FEF79F
:1039B000A1FF0546064B1B6F13F0020F85D0FEF7E3
:1039C00099FF401B41F288339842F3D90320C8E0A5
:1039D0000044025800480258694A136823F0807373
:1039E0001360FEF787FF0546654B1B6813F0007FE9
:1039F00006D0FEF77FFF401B0228F5D90320B0E078
:103A00005F4B996A5F4A0A40A16AE06A41EA001185
:103A10000A439A62226B013AC2F30802616B0139D0
:103A2000490289B20A43A16B0139090401F4FE017C
:103A30000A43E16B0139090601F0FE410A431A63AA
:103A4000DA6A22F00102DA62596B4F4A0A40A16C2D
:103A500042EAC1025A63DA6A22F00C02216C0A437C
:103A6000DA62DA6A22F00202616C0A43DA62DA6A26
:103A700042F48032DA62DA6A42F40032DA62DA6AF6
:103A800042F48022DA62DA6A42F00102DA621A68EB
:103A900042F080721A60FEF72DFF0446384B1B6817
:103AA00013F0007F06D1FEF725FF001B0228F5D991
:103AB000032056E0002054E0002052E0304A916A92
:103AC000106B012B4ED001F00303A26A93424BD13D
:103AD000C1F30511E36A994248D1C0F30802236B90
:103AE000013B9A4244D1C0F34622636B013B9A42A8
:103AF00040D1C0F30642A36B013B9A423CD1C0F3D4
:103B00000660E36B013B984238D11D4B5B6BC3F3FE
:103B1000CC03A26C9A4201D1002022E0184AD36A59
:103B200023F00103D362FEF7E5FE0546FEF7E2FE51
:103B3000A842FBD0124A516B134B0B40A16C43EAD5
:103B4000C1035363D36A43F00103D362002008E04A
:103B500001207047012004E0012002E0012000E084
:103B6000002038BD0120FCE70120FAE70120F8E73A
:103B70000120F6E70120F4E70120F2E70120F0E759
:103B8000004402580CFCFFFF0700FFFFF8B57E4B16
:103B90001B6903F03803102B00F0F280182B10D0B3
:103BA00013B17A4C2046F8BD774B1B6813F0200FF9
:103BB00000F0E880744B1868C0F3C100744CC44036
:103BC000F0E7714B9D6A05F003059C6AC4F3051488
:103BD000D86A00F001005B6BC3F3CC0303FB00F079
:103BE000FCF700FE0646002CDCD0012D76D0022D1D
:103BF00000F0A4800DB32046FCF7F4FD01466548B3
:103C0000FCF7FCFE0446604B186BC0F30800FCF7A1
:103C1000E9FD05464FF064513046FCF73BFE014696
:103C20002846FCF72FFD4FF07E51FCF72BFD014697
:103C30002046FCF72FFE044671E0534B1B6813F03F
:103C4000200F29D0504F3B68C3F3C1035048D840E0
:103C5000FCF7C8FD05462046FCF7C4FD0146284692
:103C6000FCF7CCFE0446386BC0F30800FCF7BAFD45
:103C700005464FF064513046FCF70CFE01462846DD
:103C8000FCF700FD4FF07E51FCF7FCFC014620469E
:103C9000FCF700FE044642E02046FCF7A3FD014687
:103CA0003D48FCF7ABFE0446374B186BC0F30800E9
:103CB000FCF798FD05464FF064513046FCF7EAFDED
:103CC00001462846FCF7DEFC4FF07E51FCF7DAFC9B
:103CD00001462046FCF7DEFD044620E02046FCF7C6
:103CE00081FD01462B48FCF789FE0446264B186BE4
:103CF000C0F30800FCF776FD05464FF064513046EE
:103D0000FCF7C8FD01462846FCF7BCFC4FF07E518D
:103D1000FCF7B8FC01462046FCF7BCFD04461A4BF4
:103D20001B6BC3F34623581CFCF75CFD0146204681
:103D3000FCF764FEFCF7FEFE044633E72046FCF782
:103D400051FD01461548FCF759FE04460E4B186B11
:103D5000C0F30800FCF746FD05464FF064513046BD
:103D6000FCF798FD01462846FCF78CFC4FF07E518D
:103D7000FCF788FC01462046FCF78CFD0446CEE7A4
:103D8000074C0FE7024C0DE70044025800093D00C4
:103D90000090D0030024744A0024744C20BCBE4B15
:103DA00040787D01002800F0328170B50D46044650
:103DB0009B4B1B6803F00F038B420BD2984A13688E
:103DC00023F00F030B431360136803F00F038B42C0
:103DD00040F01F81236813F0040F0CD02269914B2F
:103DE0009B6903F070039A4205D98E498B6923F0D1
:103DF00070031A438A61236813F0080F0CD06269BC
:103E0000884BDB6903F070039A4205D98549CB6979
:103E100023F070031A43CA61236813F0100F0CD00B
:103E2000A269804BDB6903F4E0639A4205D97D49BE
:103E3000CB6923F4E0631A43CA61236813F0200FAF
:103E40000CD0E269774B1B6A03F070039A4205D9E4
:103E500074490B6A23F070031A430A62236813F053
:103E6000020F0CD0E2686F4B9B6903F00F039A427C
:103E700005D96C498B6923F00F031A438A612368C3
:103E800013F0010F41D0674A936923F47063A1686E
:103E90000B4393616368022B0AD0032B27D0012BBD
:103EA0002CD0604A126812F0040F06D10120ADE058
:103EB000126812F4003F00F0AE805A490A6922F0FD
:103EC000070213430B61FEF715FD0646554B1B69B0
:103ED00003F038036268B3EBC20F16D0FEF70AFD99
:103EE000801B41F288339842F0D903208EE04D4A7E
:103EF000126812F0007FE0D1012087E0494A126881
:103F000012F4807FD9D1012080E0236813F0020FE2
:103F10000CD0E268434B9B6903F00F039A4205D231
:103F200040498B6923F00F031A438A613C4B1B689D
:103F300003F00F03AB420AD9394A136823F00F0389
:103F40002B431360136803F00F03AB4265D1236862
:103F500013F0040F0CD02269324B9B6903F07003FD
:103F60009A4205D22F498B6923F070031A438A6164
:103F7000236813F0080F0CD062692A4BDB6903F049
:103F800070039A4205D22749CB6923F070031A4384
:103F9000CA61236813F0100F0CD0A269214BDB69B2
:103FA00003F4E0639A4205D21E49CB6923F4E0632F
:103FB0001A43CA61236813F0200F0CD0E269194B31
:103FC0001B6A03F070039A4205D216490B6A23F06C
:103FD00070031A430A62FFF7D9FD12498B69C3F3D4
:103FE0000323114AD35C03F01F03D8408B6903F00D
:103FF0000F03D35C03F01F0320FA03F30B4A136093
:104000000B4B18600B4B1868FEF712FC70BD0120BB
:1040100070470120FAE70120F8E70120F6E700BF2A
:104020000020005200440258A0B900080C000024EF
:104030000800002414000024404B9B6A03F0030393
:10404000032B79D070B505460E463C4A136823F021
:1040500080631360FEF74EFC0446384B1B6813F078
:10406000006F06D0FEF746FC031B022BF5D9032098
:1040700070BD324B9A6A22F47C32296842EA0132DE
:104080009A626A68013AC2F30802A96801394902D2
:1040900089B20A43E9680139090401F4FE010A43BF
:1040A00029690139090601F0FE410A439A63DA6A77
:1040B00022F0C00269690A43DA62DA6A22F0200259
:1040C000A9690A43DA62DA6A22F01002DA62D96B6D
:1040D0001B4A0A40E96942EAC102DA63DA6A42F03D
:1040E0001002DA62C6B91A46DB6A43F40023D362CF
:1040F000124A136843F080631360FEF7FBFB04462B
:104100000E4B1B6813F0006F14D1FEF7F3FB001B7E
:104110000228F5D90320ABE7012E05D0074AD36A60
:1041200043F40013D362E3E7044AD36A43F48013F1
:10413000D362DDE700209BE701207047004402586E
:104140000700FFFF404B9B6A03F00303032B79D06A
:1041500070B505460E463C4A136823F08053136041
:10416000FEF7C8FB0446384B1B6813F0005F06D00F
:10417000FEF7C0FB031B022BF5D9032070BD324BA9
:104180009A6A22F07C72296842EA01529A626A684D
:10419000013AC2F30802A9680139490289B20A4307
:1041A000E9680139090401F4FE010A43296901396A
:1041B000090601F0FE410A431A64DA6A22F44062F9
:1041C00069690A43DA62DA6A22F40072A9690A4369
:1041D000DA62DA6A22F48072DA62596C1B4A0A40A7
:1041E000E96942EAC1025A64DA6A42F48072DA6228
:1041F000C6B91A46DB6A43F48003D362124A1368D5
:1042000043F080531360FEF775FB04460E4B1B68AA
:1042100013F0005F14D1FEF76DFB001B0228F5D9E7
:104220000320ABE7012E05D0074AD36A43F0807321
:10423000D362E3E7044AD36A43F40003D362DDE7C1
:1042400000209BE701207047004402580700FFFF51
:10425000F8B50446036813F0006F30D0836EB3F5F1
:10426000001F26D00ED8EBB1B3F5801F07D1022175
:104270000830FFF7E1FE054645B12E4621E0012654
:1042800035461EE0B3F5401F09D10025984A136D4D
:1042900023F44013A16E0B431365002611E00126A1
:1042A00035460EE0924AD36A43F40033D3620025C8
:1042B000ECE702212830FFF745FF0546DCE7002642
:1042C0003546236813F4807F14D0A36D042B32D8B5
:1042D000DFE803F003232A080800854AD36A43F481
:1042E0000033D36255BB824A136D23F00703A16DDF
:1042F0000B431365236813F4007F31D0E36D802BEB
:104300004CD020D8002B43D0402B19D1002104F1F0
:104310000800FFF791FE05461AE0002104F10800AD
:10432000FFF78AFE0546DDE7002104F12800FFF7CC
:1043300009FF0546D6E701263546DBE72E46D9E7D5
:10434000012635460CE0C02B02D0B3F5807F1CD18E
:104350005DBB674A136D23F4E073E16D0B43136596
:10436000236813F4806F46D0D4F8A830B3F5800FDB
:1043700039D01FD88BB3B3F5001F18D1002104F139
:104380000800FFF759FE05461AE001263546E7E723
:10439000574AD36A43F40033D362D9E7002104F1CA
:1043A0002800FFF7CFFE0546D2E72E46D8E70126C4
:1043B000354620E0B3F5C00F02D0B3F5000F09D1A8
:1043C000C5B94B4A936D23F46003D4F8A8100B438E
:1043D000936510E0012635460DE0454AD36A43F463
:1043E0000033D362ECE7002104F12800FFF7AAFEB6
:1043F0000546E5E72E46236813F4006F24D0D4F871
:10440000AC30B3F1007F42D00ED8002B39D0B3F1DD
:10441000807F06D1002104F10800FFF70DFE05465C
:1044200008E0012635460FE0B3F1407F02D0B3F13A
:10443000806F23D1002D31D12D4A936D23F0E0639D
:10444000D4F8AC100B439365236813F0007F2ED093
:10445000E36C202B40D026D833B1102B20D1244A36
:10446000D36A43F40033D362002D3CD1204AD36C8D
:1044700023F03003E16C0B43D36418E0012635468A
:10448000E2E71B4AD36A43F40033D362D2E7002148
:1044900004F12800FFF756FE0546CBE72E46D3E78A
:1044A0000126354603E0302BDED001263546236851
:1044B00013F4805F2DD0236EB3F5005F4FD019D871
:1044C000002B46D0B3F5805F0FD1002104F1080026
:1044D000FFF7B2FD054613E0022104F10800FFF7E3
:1044E000ABFD0546C0E72E46E1E70126354610E064
:1044F00000440258B3F5405F02D0B3F5804F25D198
:10450000002D33D1774A136D23F4E043216E0B4322
:104510001365236813F4005F38D0636EB3F5003F72
:1045200053D028D843B1B3F5803F21D1012104F104
:104530000800FFF781FD0546002D4DD1694A136D36
:1045400023F4E023616E0B4313651FE0012635461B
:10455000DFE7644AD36A43F40033D362D0E7002133
:1045600004F12800FFF7EEFD0546C9E72E46D0E727
:10457000012635460AE0B3F5802FDDD0B3F5A02F34
:10458000DAD0B3F5403FD7D001263546236813F47F
:10459000804F31D0D4F8B030B3F1005F45D020D88F
:1045A00043B1B3F1805F19D1012104F10800FFF795
:1045B00043FD0546002D3FD14A4A936D23F0E04369
:1045C000D4F8B0100B43936516E0012104F12800E4
:1045D000FFF7B8FD0546AFE72E46D7E7012635467B
:1045E0000AE0B3F1804FE5D0B3F1A04FE2D0B3F1D0
:1045F000405FDFD001263546236813F4004F09D011
:10460000236FB3F1805F19D0B3F1005F24D0D3B131
:1046100001263546236813F0807F33D0A36C032B2B
:104620005BD8DFE803F027225327012104F128009B
:10463000FFF788FD0546BDE72E46DDE7294AD36A28
:1046400043F40033D36275B9264A136D23F0405307
:10465000216F0B431365DDE7012104F10800FFF72B
:10466000EBFC0546EFE72E46D4E71E4AD36A43F437
:104670000033D362A5BB1B4AD36C23F00303A16CA8
:104680000B43D364236813F4800F2DD1236813F0F8
:10469000010F00F0A580E36F282B00F29F80DFE878
:1046A00003F08D9D9D9D9D9D9D9D879D9D9D9D9DA7
:1046B0009D9D969D9D9D9D9D9D9D8D9D9D9D9D9D41
:1046C0009D9D8D9D9D9D9D9D9D9D8D00022104F133
:1046D0000800FFF7B1FC0546CCE701263546D1E7D7
:1046E0002E46CFE700440258914A136843F4807382
:1046F0001360FEF7FFF807468D4B1B6813F4807FAD
:1047000005D1FEF7F7F8C01B6428F5D90325002D65
:104710004AD1884B1B6FD4F8B420534013F4407F28
:104720000CD0844B1A6F22F44072196F41F480311F
:104730001967196F21F4803119671A67D4F8B430FA
:10474000B3F5807F15D08DBBD4F8B43003F440723C
:10475000B2F5407F1ED0774A136923F47C5313616E
:1047600074490B6FD4F8B420C2F30B0213430B67E8
:104770008CE7FEF7BFF807466E4B1B6F13F0020F76
:10478000E1D1FEF7B7F8C01B41F288339842F3D964
:104790000325D8E76748026922F47C52664901EA9A
:1047A000131313430361DBE72E466FE72E466DE7D5
:1047B000012104F10800FFF73FFC0546E5B95D4A19
:1047C000536D23F03803E16F0B43536508E001217B
:1047D00004F12800FFF7B6FC0546EFE70126354651
:1047E000236813F0020F17D0A36F052B28D8DFE83A
:1047F00003F00B05200B0B0B2E46F1E7012104F112
:104800000800FFF719FC0546EDB94A4A536D23F03D
:104810000703A16F0B435365236813F0040F23D0E4
:10482000D4F89430052B45D8DFE803F0150F3D157B
:104830001515012104F12800FFF784FC0546E3E784
:1048400001263546E8E72E46E6E7012104F1080097
:10485000FFF7F2FB054685BB364A936D23F007034D
:10486000D4F894100B439365236813F0200F34D0D1
:10487000D4F89030B3F1005F4ED023D843B1B3F1F8
:10488000805F1CD1002104F10800FFF7D5FB05462D
:10489000002D48D1274A536D23F0E043D4F89010FF
:1048A0000B43536519E0012104F12800FFF74AFC8E
:1048B0000546D0E701263546D6E72E46D4E7012641
:1048C00035460AE0B3F1804FE2D0B3F1A04FDFD01C
:1048D000B3F1405FDCD001263546236813F0400F6A
:1048E00037D0D4F89C30B3F5006F53D026D843B1FD
:1048F000B3F5806F19D1002104F10800FFF79CFB8C
:104900000546002D4DD10B4A936D23F4E053D4F8A6
:104910009C100B4393651CE0022104F12800FFF773
:1049200011FC0546B4E72E46D7E70126354610E0D0
:104930000048025800440258CFFFFF00B3F5805FE3
:10494000DFD0B3F5A05FDCD0B3F5406FD9D001263E
:104950003546236813F0800F33D0D4F8A030B3F578
:10496000804F00F0A38021D843B1B3F5005F1AD186
:10497000002104F10800FFF75FFB0546002D40F021
:104980009C80814A936D23F46043D4F8A0100B43BC
:10499000936516E0022104F12800FFF7D3FB0546DA
:1049A000AFE72E46D5E7012635460AE0B3F5004FBE
:1049B000E4D0B3F5204FE1D0B3F5C04FDED00126EF
:1049C0003546236813F0080F0CD0D4F88430B3F5C3
:1049D000805F74D06C4A536D23F44053D4F8841034
:1049E0000B435365236813F0100F0CD0D4F89830A4
:1049F000B3F5807F6CD0644A936D23F44073D4F890
:104A000098100B439365236813F4002F0BD0D4F850
:104A1000A430B3F5803F74D0B3F5003F67D0002BCE
:104A20005FD001263546236813F4802F0CD0D4F8CC
:104A30008830B3F5001F7CD0B3F5401F6FD0B3F5BD
:104A4000801F67D001263546236813F4803F08D0C5
:104A5000236D002B76D0B3F5803F00F081800126D6
:104A60003546236813F0005F40F08380236813F419
:104A7000003F00F08E80D4F88030B3F5807F00F0E6
:104A8000EC8040F28380B3F5007F03D0B3F5407F24
:104A900040F0E180002D40F0E6803B4A536D23F466
:104AA0004073D4F880100B43536572E0022104F187
:104AB0002800FFF747FB054660E72E4681E7022105
:104AC00004F12800FFF73EFB002883D0012681E790
:104AD000022104F12800FFF735FB00288BD00126C6
:104AE00089E7002104F10800FFF7A6FA05467DB921
:104AF000254A936D23F44033D4F8A4100B439365F7
:104B000091E7022104F12800FFF71CFB0546EEE7C0
:104B10002E4688E71C4AD36A43F40033D3627DB93A
:104B2000194A536D23F44013D4F888100B4353658E
:104B30008AE7012104F12800FFF704FB0546EEE7B0
:104B40002E4681E7104AD36A43F40033D36275B925
:104B50000D4AD36C23F48033216D0B43D36480E77B
:104B6000022104F10800FFF767FA0546EFE72E4639
:104B700077E7022104F12800FFF7E4FA00283FF468
:104B800075AF012672E700BF00440258002B81D0A8
:104B90000126236813F4801F06D04F4A136D23F0BB
:104BA0000043616F0B431365236813F0805F07D0E8
:104BB000494A136923F48043D4F8B8100B431361B6
:104BC000236813F4001F06D0434A136D23F080734B
:104BD000E16E0B431365236813F0804F09D03E4B01
:104BE0001A6922F400421A611A69D4F8BC100A4307
:104BF0001A612368002B06DA374AD36C23F040533E
:104C0000616D0B43D364236813F4000F07D0324A5D
:104C1000536D23F44003D4F88C100B435365636841
:104C200013F0010F21D1636813F0020F26D16368DE
:104C300013F0040F2BD1636813F0080F30D16368B1
:104C400013F0100F35D1636813F0200F3AD106B17D
:104C500001263046F8BD01269BE71F4AD36A43F47C
:104C60000033D36216E72E4693E7002104F10800D3
:104C7000FFF7E2F90028D6D00646D4E7012104F177
:104C80000800FFF7D9F90028D1D00646CFE7022166
:104C900004F10800FFF7D0F90028CCD00646CAE797
:104CA000002104F12800FFF74DFA0028C7D006467E
:104CB000C5E7012104F12800FFF744FA0028C2D01B
:104CC0000646C0E7022104F12800FFF73BFA00285E
:104CD000BDD00646BBE700BF00440258014B186830
:104CE000704700BF1800002470B50D4E0D4D761BA7
:104CF000B61006D0002455F8043B01349847A6426C
:104D0000F9D1094E094D761B05F04EFFB61006D0BD
:104D1000002455F8043B01349847A642F9D170BDF0
:104D2000B4BD0008B4BD0008BCBD0008B4BD000897
:104D3000830730B548D0541E002A3FD0CAB203467C
:104D400001E0013C3AD303F8012B9D07F9D1032C74
:104D50002DD9CDB245EA05250F2C45EA054536D9B2
:104D6000A4F1100222F00F0C03F1200EE6444FEAEA
:104D7000121C03F1100242E9045542E902551032B7
:104D80007245F8D10CF1010214F00C0F03EB021282
:104D900004F00F0C13D0ACF1040323F0030304332D
:104DA000134442F8045B9342FBD10CF003042CB192
:104DB000CAB21C4403F8012B9C42FBD130BD6446AF
:104DC0001346002CF4D1F9E703461446BFE71A4610
:104DD000A446E0E70EB410B59DB06FF000411FABE4
:104DE000CDE906010491094953F8042B0290084CBF
:104DF0000868019302A9059400F00CF8029B0022B8
:104E00001A701DB0BDE8104003B0704718000024B0
:104E10000802FFFF2DE9F04FD5B00C460C919146EA
:104E20000E930A9002F086FE036817931846FCF76B
:104E300067F9A3891690190603D52369002B00F0A2
:104E40008B8700242BAB4D46CDE92944CDE919448D
:104E5000CDE91B4412942893984618940023089493
:104E60000024CDE914342B78002B00F0DD81AA4614
:104E700004E01AF8013F002B00F01681252BF8D131
:104E8000BAEB050640F014819AF80030002B00F0D0
:104E9000CB8100234FF0FF329AF801608DF8833008
:104EA00009930AF1010A07921F462B244FF02009AB
:104EB0000AF1010AA6F120035A2B00F22D81DFE846
:104EC00013F0BA022B012B01B5022B012B012B0190
:104ED0006A002B012B014F02E3022B015A02C90287
:104EE0002B01C4025B005B005B005B005B005B00AE
:104EF0005B005B005B002B012B012B012B012B01C5
:104F00002B012B01BF012B011A028600BF01BF013B
:104F1000BF012B012B012B012B01B0022B012B0117
:104F2000C3002B012B012B0124022B015F022B015B
:104F30002B013C072B012B012B012B012B012B01FA
:104F40002B012B01BF012B011A028800BF01BF01F9
:104F5000BF01A302880081002B0196022B0182026F
:104F6000C500700281002B0124027E0039072B014D
:104F70002B0119072B017E00A6F1300300221AF83D
:104F8000016B02EB820203EB4202A6F13003092B14
:104F9000F5D909928EE7DDF828B0584602F0CAFD2F
:104FA00043681B931846FCF7ABF81C90064658461E
:104FB00002F0C0FD83681993002E40F07A869AF8BB
:104FC000006075E79AF8006047F0200770E747F047
:104FD0001007BA060E9B40F18081073323F00703C8
:104FE0001A465B6852F8084B0E929946002BC0F2A5
:104FF0005F85079B013301F01F8054EA090327F006
:10500000800B00F0E3840A2C79F1000380F08187A3
:10501000303401238DF84F415F460B930DF24F154D
:1050200007990B989DF8832081424FF00003B8BF89
:1050300001460D9306910F9313931093002A7CD091
:10504000069B0133069378E047F0100717F020091C
:1050500000F034810E9B073323F00703D3F804904C
:1050600053F8084B0E9327F4806B002300228DF831
:105070008320079A511C00F00D8254EA09012BF09D
:10508000800740F00682002A41F01080002B40F09B
:10509000A2841BF001030B9300F0378530238DF8B9
:1050A0004F310DF24F15BBE7BAEB050600F0BC809F
:1050B0002A9B33442A93299B0133072BC8E90056C6
:1050C000299305DC08F10808089B33440893DBE6C4
:1050D0000C990A9828AA03F01BFC80B90DF1AC08C2
:1050E000F2E70C990A9828AA03F012FC002800F0B5
:1050F0008C800D9B1BB10D990A9802F015FC0C9B3E
:105100009B8913F0400F089B18BF4FF0FF330893A3
:10511000089855B0BDE8F08F002E00F08580002281
:105120008DF8EC608DF88320012306930D920B938C
:1051300007920F92139210923BAD17F0020302D028
:1051400006990231069117F0840B07D10999069848
:10515000A1EB0009B9F1000F00F315832A9C8AB175
:10516000299A0DF1830101320134C8F80010072A91
:105170004FF001012A942992C8F8041000F34683E5
:1051800008F1080883B1299B21AA01330234C8F829
:105190000020072B4FF002022A942993C8F804201C
:1051A00000F3488308F10808BBF1800F00F00E827D
:1051B000079B0B9AA3EB020BBBF1000F00F34F828E
:1051C000FB0500F1A5810B9BC8F804301C44299B0A
:1051D000C8F800500133072B2A94299300F3C782A3
:1051E00008F108087B0705D5099B069A9D1A002D32
:1051F00000F32C83DDE9083206998A42ACBF9B1884
:105200005B180893002C7FF46CAF002329930D9B4F
:105210001BB10D990A9802F087FB0DF1AC085546B9
:105220002B78002B7FF423AE2A9B002B3FF467AF33
:105230000C9C0A9828AA214603F06AFBA38960E720
:105240000E9B073323F00702F2E80234CDE9143451
:10525000DDE9143424F000440E92994618462146A4
:10526000A74B4FF0FF32FCF753FA002840F062845E
:10527000A34B484621464FF0FF32FCF72BFA00289B
:1052800040F05884DDE9140100220023FCF718FAED
:10529000002840F0AD879DF883209A4D9A4B27F067
:1052A00080070321472EC8BF1D4600230D9306919A
:1052B0000B9107930F9313931093BFE617F010030E
:1052C00040F02E8417F0400200F054870E9A52F8F6
:1052D000044B0E929946A4B2C5E653F8044B0E93C4
:1052E000FB0600F118847D0640F1128444F3C039B6
:1052F0004B4624B27AE60E9B002253F8041B8DF82D
:1053000083208DF8EC100E930EE70E9C079B54F84B
:10531000045B4FF000098DF88390002D00F0D586D6
:105320005A1C00F052851A4649462846FBF7E0FD14
:105330000D90002801F057800D9BCDF81C905B1B51
:105340000B930E9423EAE3739DF883200693CDF824
:105350003490CDF83C90CDF84C90CDF840906DE66F
:105360000E9B53F8042B0992002A80F2C983099AF4
:105370000E93524209929AF8006047F0040797E5AD
:1053800047F0100B1BF0200900F081830E9B0733C0
:1053900023F00703D3F8049053F8084B0E9301232E
:1053A00064E60E9B53F8044B0E93302378268DF859
:1053B0008430564B189347F0020B8DF885604FF000
:1053C0000009022352E6BD0600F18284FC0600F1CA
:1053D0007386780600F13C87B90540F16D860E9B17
:1053E000089953F8042B0E931170554618E79AF854
:1053F00000606C2E03BF9AF8016047F020070AF1A5
:10540000010A47F0100753E59AF80060682E03BFC1
:105410009AF8016047F400770AF1010A47F0400763
:1054200046E59AF8006047F0080741E59AF8006001
:1054300047F001073CE59DF88330002B7FF4BFADBA
:105440009AF800608DF8839032E59AF8006047F092
:1054500080072DE5524612F8016B2A2E01F0CD810E
:10546000A6F13003092B924698BF002201F28880F2
:105470001AF8016B02EB820203EB4202A6F1300341
:10548000092BF5D9079215E59AF800608DF883404D
:105490000EE5BB46012B3FF4B6AD022B54AD12D145
:1054A000189A04F00F032409D35C05F8013D44EA7F
:1054B00009744FEA191954EA0903F2D154AB5B1B82
:1054C0005F460B93ACE504F00703E40844EA497433
:1054D0004FEAD909303354EA09012A4605F8013D5B
:1054E000F1D11BF0010FE9D0302BE7D03023023A85
:1054F00005F8013C54AB9B1A5F460B9315468FE5AC
:10550000FFFFEF7FB4B90008B8B90008C4B90008BC
:10551000652E40F3E680DDE9140100220023FCF74C
:10552000C5F8002800F0CD81299BBF4AC8F80020AB
:10553000013301340122072B2A942993C8F804204F
:1055400000F37D8508F10808229B129A934280F2AD
:10555000D382169B179A1C44C8E90023299B2A94DE
:105560000133072B299300F3EB8308F10808129B02
:105570005D1E002D7FF736AE102D299BDFF8AC9213
:1055800040F36E8549462246B946DDF828B00C9CAA
:1055900010260F4605E008F10808103D102D40F3D5
:1055A0005B8501331032072BC8E90076CDE929323B
:1055B000F1DD28AA2146584603F0AAF900287FF415
:1055C00098ADDDE929320DF1AC08E6E7099B069AB2
:1055D000A3EB020BBBF1000F7FF7EAADBBF1100F9D
:1055E000299ADFF848922CDD1D9621464E460C9CE8
:1055F000DDF82890102306E0ABF1100BBBF1100F83
:1056000008F108081ADD01321031072AC8E90063E1
:10561000CDE92921F0DD28AA214648460DF1AC0844
:1056200003F076F900287FF464ADABF1100BBBF109
:10563000100FDDE929214FF01003E4DCB1461D9E77
:105640000C4601325C44072ACDE92924C8F80090B1
:10565000C8F804B000F31D8508F10808A8E5BBF1FF
:10566000100F299ADFF8C4912DDD41462046A84647
:105670004C460C9DDDF82890102306E0ABF1100B92
:10568000BBF1100F01F1080119DD01321030072ABA
:10569000C1E90043CDE92920F0DD28AA2946484682
:1056A00003F036F900287FF424ADABF1100BBBF109
:1056B000100FDDE929202BA94FF01003E5DC45464A
:1056C000A1468846044601325C44072ACDE92924D4
:1056D000C8F80090C8F804B000F3CC8108F10808BD
:1056E0006EE5129B012B40F37C81299EC8F8005087
:1056F000013601340123072E2A942996C8F8043074
:1057000000F3E08108F10808169B179A01361C4443
:10571000072EC8E90023CDE9296400F3E08108F1F0
:105720000808DDE9140100220023FBF7BFFF002871
:1057300040F07481129B0136013B01351C44072E59
:10574000C8F800502996C8F804302A9400F359810B
:1057500008F108081A9BC8F8043001361C44072ECB
:1057600024ABCDE92964C8F800307FF739AD0C9936
:105770000A9828AA03F0CCF800287FF4BAAC2A9C37
:105780000DF1AC082EE5B9F1100FDDE929212BDD73
:10579000CDE91D3B1F96DDF828B04E461024A946E2
:1057A0000C9D04E0103E102E08F1080817DD0132B0
:1057B0001F4B1031072AC8E90034CDE92921F1DD5A
:1057C00028AA294658460DF1AC0803F0A1F8002894
:1057D0007FF48FAC103E102EDDE92921E7DCDDE9F6
:1057E0001D3B4D46B1461F9EC8F80490013209EB9F
:1057F0000104072A0E49C8F80010CDE9292400F356
:10580000FF839DF8832008F10808A8E40C990A9802
:105810001D9328AA03F07CF800287FF46AAC2A9C28
:105820001D9B0DF1AC08ADE4F4B9000808BA0008FE
:10583000F8B900080C990A9828AA03F069F800281A
:105840007FF457AC2A9C0DF1AC08ADE4102D299BD8
:1058500021DD0A9FDDF83090102604E0103D102D68
:1058600008F1080817DD0133B04A1034072BC8E9E6
:105870000026CDE92934F1DD28AA494638460DF144
:10588000AC0803F045F800287FF433AC103D102D30
:10589000DDE92934E7DC0133A44AC8F804502C447C
:1058A000072BCDE92934C8F800207FF7A3AC0C9969
:1058B0000A9828AA03F02CF800287FF41AAC2A9C36
:1058C00098E42299002940F36683DDF84090129B0A
:1058D0009945A8BF9946B9F1000F0BDD299B01330B
:1058E0004C44072BC8E900592A94299300F32F85CB
:1058F00008F10808109EB9F1000FA8BFA6EB090631
:10590000002E00F33882DDF840B07805AB4400F19A
:105910006682229B129A934202DBF90740F18E8441
:10592000169A17991444C8E90012299A2A94013248
:10593000072A299200F3188508F10808129AAE1870
:10594000A6EB0B06D51AAE42A8BF2E46002E0DDDE3
:10595000299BC8F800B001333444072BC8F8046011
:105960002A94299300F31A8608F10808002EA8BF8C
:10597000AD1B002D7FF736AC102D299BDFF8B091C1
:1059800040F36E8349462246B946DDF828B00C9CA8
:1059900010260F4605E008F10808103D102D40F3D1
:1059A0005B8301331032072BC8E90076CDE9293239
:1059B000F1DD28AA2146584602F0AAFF00287FF40C
:1059C00098ABDDE929320DF1AC08E6E7079B002B27
:1059D0007FF41EAB5F46002307930B9354ADFFF794
:1059E0001FBBFA073FF581AE299EC8F8005001366B
:1059F00001340123072E2A942996C8F804307FF732
:105A0000A7AE0C990A9828AA02F082FF00287FF41A
:105A100070ABDDE929640DF1AC089BE6129B5D1EBD
:105A2000002D7FF797AE102DDFF8049140F3968399
:105A3000224607970A9C0C9F4FF0100B05E008F1D7
:105A40000808103D102D40F3878301361032072ED1
:105A5000C8E9009BCDE92962F1DD28AA3946204634
:105A600002F056FF00287FF444ABDDE929620DF116
:105A7000AC08E6E70C990A9828AA02F049FF00282A
:105A80007FF437AB2A9C0DF1AC08FFF799BB1BF0F4
:105A9000100340F028811BF0400200F079830E9A39
:105AA00052F8044B0E929946A4B20123FFF7DEBAD6
:105AB0002D2364428DF8833069EB4909BB460123ED
:105AC000FFF7D7BA0C990A9828AA02F021FF0028FC
:105AD0007FF40FABDDE929640DF1AC0814E60C99F5
:105AE0000A9828AA02F014FF00287FF402ABDDE92F
:105AF00029640DF1AC0814E6FD077FF573AB28E5CA
